{
  "contractName": "HelloWorld",
  "abi": [
    {
      "anonymous": false,
      "inputs": [
        {
          "indexed": true,
          "internalType": "string",
          "name": "_panelId",
          "type": "string"
        }
      ],
      "name": "votedEvent",
      "type": "event"
    },
    {
      "constant": true,
      "inputs": [
        {
          "internalType": "uint256",
          "name": "",
          "type": "uint256"
        }
      ],
      "name": "panels",
      "outputs": [
        {
          "internalType": "string",
          "name": "id",
          "type": "string"
        },
        {
          "internalType": "string",
          "name": "name",
          "type": "string"
        },
        {
          "internalType": "uint256",
          "name": "voteCount",
          "type": "uint256"
        }
      ],
      "payable": false,
      "stateMutability": "view",
      "type": "function"
    },
    {
      "constant": true,
      "inputs": [],
      "name": "panelsCount",
      "outputs": [
        {
          "internalType": "uint256",
          "name": "",
          "type": "uint256"
        }
      ],
      "payable": false,
      "stateMutability": "view",
      "type": "function"
    },
    {
      "constant": true,
      "inputs": [
        {
          "internalType": "address",
          "name": "",
          "type": "address"
        }
      ],
      "name": "voters",
      "outputs": [
        {
          "internalType": "bool",
          "name": "",
          "type": "bool"
        }
      ],
      "payable": false,
      "stateMutability": "view",
      "type": "function"
    },
    {
      "constant": true,
      "inputs": [
        {
          "internalType": "string",
          "name": "a",
          "type": "string"
        },
        {
          "internalType": "string",
          "name": "b",
          "type": "string"
        }
      ],
      "name": "compareStrings",
      "outputs": [
        {
          "internalType": "bool",
          "name": "",
          "type": "bool"
        }
      ],
      "payable": false,
      "stateMutability": "pure",
      "type": "function"
    },
    {
      "constant": false,
      "inputs": [
        {
          "internalType": "string",
          "name": "_panelid",
          "type": "string"
        }
      ],
      "name": "addPanel",
      "outputs": [],
      "payable": false,
      "stateMutability": "nonpayable",
      "type": "function"
    },
    {
      "constant": false,
      "inputs": [
        {
          "internalType": "string",
          "name": "_panelId",
          "type": "string"
        }
      ],
      "name": "vote",
      "outputs": [],
      "payable": false,
      "stateMutability": "nonpayable",
      "type": "function"
    },
    {
      "constant": true,
      "inputs": [],
      "name": "winningProposal",
      "outputs": [
        {
          "internalType": "uint256",
          "name": "winningProposal_",
          "type": "uint256"
        }
      ],
      "payable": false,
      "stateMutability": "view",
      "type": "function"
    },
    {
      "constant": true,
      "inputs": [],
      "name": "winnerName",
      "outputs": [
        {
          "internalType": "string",
          "name": "",
          "type": "string"
        }
      ],
      "payable": false,
      "stateMutability": "view",
      "type": "function"
    },
    {
      "constant": true,
      "inputs": [],
      "name": "totalVotes",
      "outputs": [
        {
          "internalType": "uint256",
          "name": "",
          "type": "uint256"
        }
      ],
      "payable": false,
      "stateMutability": "view",
      "type": "function"
    }
  ],
  "bytecode": "0x608060405234801561001057600080fd5b506110d6806100206000396000f3fe608060405234801561001057600080fd5b50600436106100935760003560e01c8063bed34bba11610066578063bed34bba146101eb578063e2ba53f014610355578063e3ba06d1146103d8578063f40e4f6f146103f6578063fc36e15b1461051057610093565b80630d15fd771461009857806334c9e962146100b6578063609ff1bd14610171578063a3ec138d1461018f575b600080fd5b6100a06105cb565b6040518082815260200191505060405180910390f35b61016f600480360360208110156100cc57600080fd5b81019080803590602001906401000000008111156100e957600080fd5b8201836020820111156100fb57600080fd5b8035906020019184600183028401116401000000008311171561011d57600080fd5b91908080601f016020809104026020016040519081016040528093929190818152602001838380828437600081840152601f19601f820116905080830192505050505050509192919290505050610612565b005b61017961069f565b6040518082815260200191505060405180910390f35b6101d1600480360360208110156101a557600080fd5b81019080803573ffffffffffffffffffffffffffffffffffffffff169060200190929190505050610703565b604051808215151515815260200191505060405180910390f35b61033b6004803603604081101561020157600080fd5b810190808035906020019064010000000081111561021e57600080fd5b82018360208201111561023057600080fd5b8035906020019184600183028401116401000000008311171561025257600080fd5b91908080601f016020809104026020016040519081016040528093929190818152602001838380828437600081840152601f19601f820116905080830192505050505050509192919290803590602001906401000000008111156102b557600080fd5b8201836020820111156102c757600080fd5b803590602001918460018302840111640100000000831117156102e957600080fd5b91908080601f016020809104026020016040519081016040528093929190818152602001838380828437600081840152601f19601f820116905080830192505050505050509192919290505050610723565b604051808215151515815260200191505060405180910390f35b61035d610812565b6040518080602001828103825283818151815260200191508051906020019080838360005b8381101561039d578082015181840152602081019050610382565b50505050905090810190601f1680156103ca5780820380516001836020036101000a031916815260200191505b509250505060405180910390f35b6103e06109b7565b6040518082815260200191505060405180910390f35b6104226004803603602081101561040c57600080fd5b81019080803590602001909291905050506109bd565b604051808060200180602001848152602001838103835286818151815260200191508051906020019080838360005b8381101561046c578082015181840152602081019050610451565b50505050905090810190601f1680156104995780820380516001836020036101000a031916815260200191505b50838103825285818151815260200191508051906020019080838360005b838110156104d25780820151818401526020810190506104b7565b50505050905090810190601f1680156104ff5780820380516001836020036101000a031916815260200191505b509550505050505060405180910390f35b6105c96004803603602081101561052657600080fd5b810190808035906020019064010000000081111561054357600080fd5b82018360208201111561055557600080fd5b8035906020019184600183028401116401000000008311171561057757600080fd5b91908080601f016020809104026020016040519081016040528093929190818152602001838380828437600081840152601f19601f820116905080830192505050505050509192919290505050610b17565b005b6000806000905060008090505b60015481101561060a5760026000828152602001908152602001600020600201548201915080806001019150506105d8565b508091505090565b60405180606001604052808281526020018281526020016000815250600260006001548152602001908152602001600020600082015181600001908051906020019061065f929190610ffc565b50602082015181600101908051906020019061067c929190610ffc565b506040820151816002015590505060016000815480929190600101919050555050565b6000806000905060008090505b6001548110156106fe5781600260008381526020019081526020016000206002015411156106f157600260008281526020019081526020016000206002015491508092505b80806001019150506106ac565b505090565b60006020528060005260406000206000915054906101000a900460ff1681565b6000816040516020018082805190602001908083835b6020831061075c5780518252602082019150602081019050602083039250610739565b6001836020036101000a03801982511681845116808217855250505050505090500191505060405160208183030381529060405280519060200120836040516020018082805190602001908083835b602083106107ce57805182526020820191506020810190506020830392506107ab565b6001836020036101000a0380198251168184511680821785525050505050509050019150506040516020818303038152906040528051906020012014905092915050565b6060806040518060400160405280600281526020017f2020000000000000000000000000000000000000000000000000000000000000815250905060008090505b6001548110156109af576109a0600260008381526020019081526020016000206001018054600181600116156101000203166002900480601f01602080910402602001604051908101604052809291908181526020018280546001816001161561010002031660029004801561090a5780601f106108df5761010080835404028352916020019161090a565b820191906000526020600020905b8154815290600101906020018083116108ed57829003601f168201915b50505050506040518060400160405280600181526020017f3a000000000000000000000000000000000000000000000000000000000000008152506109646002600086815260200190815260200160002060020154610cff565b6040518060400160405280600181526020017f2c0000000000000000000000000000000000000000000000000000000000000081525086610e38565b91508080600101915050610853565b508091505090565b60015481565b6002602052806000526040600020600091509050806000018054600181600116156101000203166002900480601f016020809104026020016040519081016040528092919081815260200182805460018160011615610100020316600290048015610a695780601f10610a3e57610100808354040283529160200191610a69565b820191906000526020600020905b815481529060010190602001808311610a4c57829003601f168201915b505050505090806001018054600181600116156101000203166002900480601f016020809104026020016040519081016040528092919081815260200182805460018160011615610100020316600290048015610b075780601f10610adc57610100808354040283529160200191610b07565b820191906000526020600020905b815481529060010190602001808311610aea57829003601f168201915b5050505050908060020154905083565b6000803373ffffffffffffffffffffffffffffffffffffffff1673ffffffffffffffffffffffffffffffffffffffff16815260200190815260200160002060009054906101000a900460ff1615610b6d57600080fd5b60008090505b600154811015610c6e57610c35600260008381526020019081526020016000206000018054600181600116156101000203166002900480601f016020809104026020016040519081016040528092919081815260200182805460018160011615610100020316600290048015610c2a5780601f10610bff57610100808354040283529160200191610c2a565b820191906000526020600020905b815481529060010190602001808311610c0d57829003601f168201915b505050505083610723565b15610c615760026000828152602001908152602001600020600201600081548092919060010191905055505b8080600101915050610b73565b50806040518082805190602001908083835b60208310610ca35780518252602082019150602081019050602083039250610c80565b6001836020036101000a03801982511681845116808217855250505050505090500191505060405180910390207fc67ac03f9480999b27a37e263a5df747fef748d1edb0b64684da8fb07d21180e60405160405180910390a250565b60606000821415610d47576040518060400160405280600181526020017f30000000000000000000000000000000000000000000000000000000000000008152509050610e33565b600082905060005b60008214610d71578080600101915050600a8281610d6957fe5b049150610d4f565b6060816040519080825280601f01601f191660200182016040528015610da65781602001600182028038833980820191505090505b50905060008290505b60008614610e2b576001810390506000600a808881610dca57fe5b04028703603001905060008160f81b905080848481518110610de857fe5b60200101907effffffffffffffffffffffffffffffffffffffffffffffffffffffffffffff1916908160001a905350600a8881610e2157fe5b0497505050610daf565b819450505050505b919050565b606085858585856040516020018086805190602001908083835b60208310610e755780518252602082019150602081019050602083039250610e52565b6001836020036101000a03801982511681845116808217855250505050505090500185805190602001908083835b60208310610ec65780518252602082019150602081019050602083039250610ea3565b6001836020036101000a03801982511681845116808217855250505050505090500184805190602001908083835b60208310610f175780518252602082019150602081019050602083039250610ef4565b6001836020036101000a03801982511681845116808217855250505050505090500183805190602001908083835b60208310610f685780518252602082019150602081019050602083039250610f45565b6001836020036101000a03801982511681845116808217855250505050505090500182805190602001908083835b60208310610fb95780518252602082019150602081019050602083039250610f96565b6001836020036101000a03801982511681845116808217855250505050505090500195505050505050604051602081830303815290604052905095945050505050565b828054600181600116156101000203166002900490600052602060002090601f016020900481019282601f1061103d57805160ff191683800117855561106b565b8280016001018555821561106b579182015b8281111561106a57825182559160200191906001019061104f565b5b509050611078919061107c565b5090565b61109e91905b8082111561109a576000816000905550600101611082565b5090565b9056fea265627a7a72315820fa7a63b1a7191712c359da85511d9f68dc4df0972ec78dd062a23a60ea2066ff64736f6c63430005100032",
  "source": "// SPDX-License-Identifier: GPL-3.0\r\n\r\npragma solidity ^0.5.16;\r\n\r\ncontract HelloWorld {\r\n       function append(string memory b, string memory c, string memory d, string memory e,string memory f) internal pure returns (string memory) {\r\n    return string(abi.encodePacked( b, c, d, e,f));\r\n    }\r\n    function uint2str(uint _i) internal pure returns (string memory _uintAsString) {\r\n        if (_i == 0) {\r\n            return \"0\";\r\n        }\r\n        uint j = _i;\r\n        uint len;\r\n        while (j != 0) {\r\n            len++;\r\n            j /= 10;\r\n        }\r\n        bytes memory bstr = new bytes(len);\r\n        uint k = len;\r\n        while (_i != 0) {\r\n            k = k-1;\r\n            uint8 temp = (48 + uint8(_i - _i / 10 * 10));\r\n            bytes1 b1 = bytes1(temp);\r\n            bstr[k] = b1;\r\n            _i /= 10;\r\n        }\r\n        return string(bstr);\r\n    }\r\n\r\n    function compareStrings(string memory a, string memory b)\r\n        public\r\n        pure\r\n        returns (bool){\r\n        return (keccak256(abi.encodePacked((a))) ==\r\n        keccak256(abi.encodePacked((b))));\r\n    }\r\n\r\n    struct Panel {\r\n        string id;\r\n        string name;\r\n        uint256 voteCount;\r\n    }\r\n    mapping(address => bool) public voters;\r\n    uint256 public panelsCount;\r\n\r\n    mapping(uint256 => Panel) public panels;\r\n\r\n    function addPanel(string memory _panelid) public {\r\n        \r\n        panels[panelsCount] = Panel(_panelid, _panelid, 0);\r\n        panelsCount++;\r\n    }\r\n\r\n    event votedEvent(string indexed _panelId);\r\n\r\n    function vote(string memory _panelId) public {\r\n        // require that they haven't voted before\r\n        require(!voters[msg.sender]);\r\n\r\n        // require a valid candidate\r\n        // require(_candidateId > 0 && _candidateId <= candidatesCount);\r\n\r\n        // record that voter has voted\r\n        for (uint256 i = 0; i < panelsCount; i++) {\r\n            if (compareStrings(panels[i].id, _panelId)) {\r\n                panels[i].voteCount++;\r\n            }\r\n        }\r\n        //voters[msg.sender] = true;\r\n\r\n        // update candidate vote Count\r\n\r\n        // trigger voted event\r\n        emit votedEvent(_panelId);\r\n    }\r\n\r\n    function winningProposal() public view returns (uint256 winningProposal_) {\r\n        uint256 winningVoteCount = 0;\r\n        for (uint256 p = 0; p < panelsCount; p++) {\r\n            if (panels[p].voteCount > winningVoteCount) {\r\n                winningVoteCount = panels[p].voteCount;\r\n                winningProposal_ = p;\r\n            }\r\n        }\r\n    }\r\n\r\n    function winnerName() public view returns (string memory) {\r\n        string memory x = \"  \";\r\n        for (uint256 p=0;p<panelsCount;p++){\r\n           x =  append(panels[p].name,\":\",uint2str(panels[p].voteCount),\",\",x);\r\n        }\r\n\r\n        return x;\r\n    }\r\n\r\n    function totalVotes() public view returns (uint256){\r\n         uint256 x = 0;\r\n         for (uint256 p=0;p<panelsCount;p++){\r\n           x = x +  panels[p].voteCount;\r\n        }\r\n\r\n        return x;\r\n    }\r\n}\r\n",
  "sourcePath": "C:\\Users\\Dell User\\Desktop\\user\\client\\contracts\\helloworld.sol",
  "compiler": {
    "name": "solc",
    "version": "0.5.16+commit.9c3226ce.Emscripten.clang"
  },
  "schemaVersion": "3.4.11",
  "updatedAt": "2023-01-21T11:07:14.000Z",
  "networkType": "ethereum",
  "devdoc": {
    "methods": {}
  },
  "userdoc": {
    "methods": {}
  }
}