{
  "contractName": "HelloWorld",
  "abi": [
    {
      "anonymous": false,
      "inputs": [
        {
          "indexed": true,
          "internalType": "string",
          "name": "_panelId",
          "type": "string"
        }
      ],
      "name": "votedEvent",
      "type": "event"
    },
    {
      "constant": true,
      "inputs": [
        {
          "internalType": "uint256",
          "name": "",
          "type": "uint256"
        }
      ],
      "name": "panels",
      "outputs": [
        {
          "internalType": "string",
          "name": "id",
          "type": "string"
        },
        {
          "internalType": "string",
          "name": "name",
          "type": "string"
        },
        {
          "internalType": "uint256",
          "name": "voteCount",
          "type": "uint256"
        }
      ],
      "payable": false,
      "stateMutability": "view",
      "type": "function"
    },
    {
      "constant": true,
      "inputs": [],
      "name": "panelsCount",
      "outputs": [
        {
          "internalType": "uint256",
          "name": "",
          "type": "uint256"
        }
      ],
      "payable": false,
      "stateMutability": "view",
      "type": "function"
    },
    {
      "constant": true,
      "inputs": [
        {
          "internalType": "address",
          "name": "",
          "type": "address"
        }
      ],
      "name": "voters",
      "outputs": [
        {
          "internalType": "bool",
          "name": "",
          "type": "bool"
        }
      ],
      "payable": false,
      "stateMutability": "view",
      "type": "function"
    },
    {
      "constant": true,
      "inputs": [
        {
          "internalType": "string",
          "name": "a",
          "type": "string"
        },
        {
          "internalType": "string",
          "name": "b",
          "type": "string"
        }
      ],
      "name": "compareStrings",
      "outputs": [
        {
          "internalType": "bool",
          "name": "",
          "type": "bool"
        }
      ],
      "payable": false,
      "stateMutability": "pure",
      "type": "function"
    },
    {
      "constant": false,
      "inputs": [
        {
          "internalType": "string",
          "name": "_panelid",
          "type": "string"
        }
      ],
      "name": "addPanel",
      "outputs": [],
      "payable": false,
      "stateMutability": "nonpayable",
      "type": "function"
    },
    {
      "constant": false,
      "inputs": [
        {
          "internalType": "string",
          "name": "_panelId",
          "type": "string"
        }
      ],
      "name": "vote",
      "outputs": [],
      "payable": false,
      "stateMutability": "nonpayable",
      "type": "function"
    },
    {
      "constant": true,
      "inputs": [],
      "name": "winningProposal",
      "outputs": [
        {
          "internalType": "uint256",
          "name": "winningProposal_",
          "type": "uint256"
        }
      ],
      "payable": false,
      "stateMutability": "view",
      "type": "function"
    },
    {
      "constant": true,
      "inputs": [],
      "name": "winnerName",
      "outputs": [
        {
          "internalType": "string",
          "name": "",
          "type": "string"
        }
      ],
      "payable": false,
      "stateMutability": "view",
      "type": "function"
    }
  ],
  "bytecode": "0x608060405234801561001057600080fd5b50611066806100206000396000f3fe608060405234801561001057600080fd5b50600436106100885760003560e01c8063e2ba53f01161005b578063e2ba53f01461032c578063e3ba06d1146103af578063f40e4f6f146103cd578063fc36e15b146104e757610088565b806334c9e9621461008d578063609ff1bd14610148578063a3ec138d14610166578063bed34bba146101c2575b600080fd5b610146600480360360208110156100a357600080fd5b81019080803590602001906401000000008111156100c057600080fd5b8201836020820111156100d257600080fd5b803590602001918460018302840111640100000000831117156100f457600080fd5b91908080601f016020809104026020016040519081016040528093929190818152602001838380828437600081840152601f19601f8201169050808301925050505050505091929192905050506105a2565b005b61015061062f565b6040518082815260200191505060405180910390f35b6101a86004803603602081101561017c57600080fd5b81019080803573ffffffffffffffffffffffffffffffffffffffff169060200190929190505050610693565b604051808215151515815260200191505060405180910390f35b610312600480360360408110156101d857600080fd5b81019080803590602001906401000000008111156101f557600080fd5b82018360208201111561020757600080fd5b8035906020019184600183028401116401000000008311171561022957600080fd5b91908080601f016020809104026020016040519081016040528093929190818152602001838380828437600081840152601f19601f8201169050808301925050505050505091929192908035906020019064010000000081111561028c57600080fd5b82018360208201111561029e57600080fd5b803590602001918460018302840111640100000000831117156102c057600080fd5b91908080601f016020809104026020016040519081016040528093929190818152602001838380828437600081840152601f19601f8201169050808301925050505050505091929192905050506106b3565b604051808215151515815260200191505060405180910390f35b6103346107a2565b6040518080602001828103825283818151815260200191508051906020019080838360005b83811015610374578082015181840152602081019050610359565b50505050905090810190601f1680156103a15780820380516001836020036101000a031916815260200191505b509250505060405180910390f35b6103b7610947565b6040518082815260200191505060405180910390f35b6103f9600480360360208110156103e357600080fd5b810190808035906020019092919050505061094d565b604051808060200180602001848152602001838103835286818151815260200191508051906020019080838360005b83811015610443578082015181840152602081019050610428565b50505050905090810190601f1680156104705780820380516001836020036101000a031916815260200191505b50838103825285818151815260200191508051906020019080838360005b838110156104a957808201518184015260208101905061048e565b50505050905090810190601f1680156104d65780820380516001836020036101000a031916815260200191505b509550505050505060405180910390f35b6105a0600480360360208110156104fd57600080fd5b810190808035906020019064010000000081111561051a57600080fd5b82018360208201111561052c57600080fd5b8035906020019184600183028401116401000000008311171561054e57600080fd5b91908080601f016020809104026020016040519081016040528093929190818152602001838380828437600081840152601f19601f820116905080830192505050505050509192919290505050610aa7565b005b6040518060600160405280828152602001828152602001600081525060026000600154815260200190815260200160002060008201518160000190805190602001906105ef929190610f8c565b50602082015181600101908051906020019061060c929190610f8c565b506040820151816002015590505060016000815480929190600101919050555050565b6000806000905060008090505b60015481101561068e57816002600083815260200190815260200160002060020154111561068157600260008281526020019081526020016000206002015491508092505b808060010191505061063c565b505090565b60006020528060005260406000206000915054906101000a900460ff1681565b6000816040516020018082805190602001908083835b602083106106ec57805182526020820191506020810190506020830392506106c9565b6001836020036101000a03801982511681845116808217855250505050505090500191505060405160208183030381529060405280519060200120836040516020018082805190602001908083835b6020831061075e578051825260208201915060208101905060208303925061073b565b6001836020036101000a0380198251168184511680821785525050505050509050019150506040516020818303038152906040528051906020012014905092915050565b6060806040518060400160405280600281526020017f2020000000000000000000000000000000000000000000000000000000000000815250905060008090505b60015481101561093f576109306040518060400160405280600781526020017f4e616d65203a2000000000000000000000000000000000000000000000000000815250600260008481526020019081526020016000206001018054600181600116156101000203166002900480601f0160208091040260200160405190810160405280929190818152602001828054600181600116156101000203166002900480156108d05780601f106108a5576101008083540402835291602001916108d0565b820191906000526020600020905b8154815290600101906020018083116108b357829003601f168201915b50505050506040518060400160405280600d81526020017f20546f74616c20566f74653a200000000000000000000000000000000000000081525061092a6002600087815260200190815260200160002060020154610c8f565b86610dc8565b915080806001019150506107e3565b508091505090565b60015481565b6002602052806000526040600020600091509050806000018054600181600116156101000203166002900480601f0160208091040260200160405190810160405280929190818152602001828054600181600116156101000203166002900480156109f95780601f106109ce576101008083540402835291602001916109f9565b820191906000526020600020905b8154815290600101906020018083116109dc57829003601f168201915b505050505090806001018054600181600116156101000203166002900480601f016020809104026020016040519081016040528092919081815260200182805460018160011615610100020316600290048015610a975780601f10610a6c57610100808354040283529160200191610a97565b820191906000526020600020905b815481529060010190602001808311610a7a57829003601f168201915b5050505050908060020154905083565b6000803373ffffffffffffffffffffffffffffffffffffffff1673ffffffffffffffffffffffffffffffffffffffff16815260200190815260200160002060009054906101000a900460ff1615610afd57600080fd5b60008090505b600154811015610bfe57610bc5600260008381526020019081526020016000206000018054600181600116156101000203166002900480601f016020809104026020016040519081016040528092919081815260200182805460018160011615610100020316600290048015610bba5780601f10610b8f57610100808354040283529160200191610bba565b820191906000526020600020905b815481529060010190602001808311610b9d57829003601f168201915b5050505050836106b3565b15610bf15760026000828152602001908152602001600020600201600081548092919060010191905055505b8080600101915050610b03565b50806040518082805190602001908083835b60208310610c335780518252602082019150602081019050602083039250610c10565b6001836020036101000a03801982511681845116808217855250505050505090500191505060405180910390207fc67ac03f9480999b27a37e263a5df747fef748d1edb0b64684da8fb07d21180e60405160405180910390a250565b60606000821415610cd7576040518060400160405280600181526020017f30000000000000000000000000000000000000000000000000000000000000008152509050610dc3565b600082905060005b60008214610d01578080600101915050600a8281610cf957fe5b049150610cdf565b6060816040519080825280601f01601f191660200182016040528015610d365781602001600182028038833980820191505090505b50905060008290505b60008614610dbb576001810390506000600a808881610d5a57fe5b04028703603001905060008160f81b905080848481518110610d7857fe5b60200101907effffffffffffffffffffffffffffffffffffffffffffffffffffffffffffff1916908160001a905350600a8881610db157fe5b0497505050610d3f565b819450505050505b919050565b606085858585856040516020018086805190602001908083835b60208310610e055780518252602082019150602081019050602083039250610de2565b6001836020036101000a03801982511681845116808217855250505050505090500185805190602001908083835b60208310610e565780518252602082019150602081019050602083039250610e33565b6001836020036101000a03801982511681845116808217855250505050505090500184805190602001908083835b60208310610ea75780518252602082019150602081019050602083039250610e84565b6001836020036101000a03801982511681845116808217855250505050505090500183805190602001908083835b60208310610ef85780518252602082019150602081019050602083039250610ed5565b6001836020036101000a03801982511681845116808217855250505050505090500182805190602001908083835b60208310610f495780518252602082019150602081019050602083039250610f26565b6001836020036101000a03801982511681845116808217855250505050505090500195505050505050604051602081830303815290604052905095945050505050565b828054600181600116156101000203166002900490600052602060002090601f016020900481019282601f10610fcd57805160ff1916838001178555610ffb565b82800160010185558215610ffb579182015b82811115610ffa578251825591602001919060010190610fdf565b5b509050611008919061100c565b5090565b61102e91905b8082111561102a576000816000905550600101611012565b5090565b9056fea265627a7a723158208ad94f6731cb3ec6b1926a72eb862e3e31b0a4774868bee776ab14a5ac6fd03a64736f6c63430005100032",
  "source": "// SPDX-License-Identifier: GPL-3.0\r\n\r\npragma solidity ^0.5.16;\r\n\r\ncontract HelloWorld {\r\n       function append(string memory a, string memory b, string memory c, string memory d, string memory e) internal pure returns (string memory) {\r\n    return string(abi.encodePacked(a, b, c, d, e));\r\n    }\r\n    function uint2str(uint _i) internal pure returns (string memory _uintAsString) {\r\n        if (_i == 0) {\r\n            return \"0\";\r\n        }\r\n        uint j = _i;\r\n        uint len;\r\n        while (j != 0) {\r\n            len++;\r\n            j /= 10;\r\n        }\r\n        bytes memory bstr = new bytes(len);\r\n        uint k = len;\r\n        while (_i != 0) {\r\n            k = k-1;\r\n            uint8 temp = (48 + uint8(_i - _i / 10 * 10));\r\n            bytes1 b1 = bytes1(temp);\r\n            bstr[k] = b1;\r\n            _i /= 10;\r\n        }\r\n        return string(bstr);\r\n    }\r\n\r\n    function compareStrings(string memory a, string memory b)\r\n        public\r\n        pure\r\n        returns (bool){\r\n        return (keccak256(abi.encodePacked((a))) ==\r\n        keccak256(abi.encodePacked((b))));\r\n    }\r\n\r\n    struct Panel {\r\n        string id;\r\n        string name;\r\n        uint256 voteCount;\r\n    }\r\n    mapping(address => bool) public voters;\r\n    uint256 public panelsCount;\r\n\r\n    mapping(uint256 => Panel) public panels;\r\n\r\n    function addPanel(string memory _panelid) public {\r\n        \r\n        panels[panelsCount] = Panel(_panelid, _panelid, 0);\r\n        panelsCount++;\r\n    }\r\n\r\n    event votedEvent(string indexed _panelId);\r\n\r\n    function vote(string memory _panelId) public {\r\n        // require that they haven't voted before\r\n        require(!voters[msg.sender]);\r\n\r\n        // require a valid candidate\r\n        // require(_candidateId > 0 && _candidateId <= candidatesCount);\r\n\r\n        // record that voter has voted\r\n        for (uint256 i = 0; i < panelsCount; i++) {\r\n            if (compareStrings(panels[i].id, _panelId)) {\r\n                panels[i].voteCount++;\r\n            }\r\n        }\r\n        //voters[msg.sender] = true;\r\n\r\n        // update candidate vote Count\r\n\r\n        // trigger voted event\r\n        emit votedEvent(_panelId);\r\n    }\r\n\r\n    function winningProposal() public view returns (uint256 winningProposal_) {\r\n        uint256 winningVoteCount = 0;\r\n        for (uint256 p = 0; p < panelsCount; p++) {\r\n            if (panels[p].voteCount > winningVoteCount) {\r\n                winningVoteCount = panels[p].voteCount;\r\n                winningProposal_ = p;\r\n            }\r\n        }\r\n    }\r\n\r\n    function winnerName() public view returns (string memory) {\r\n        string memory x = \"  \";\r\n        for (uint256 p=0;p<panelsCount;p++){\r\n           x =  append(\"Name : \",panels[p].name,\" Total Vote: \",uint2str(panels[p].voteCount),x);\r\n        }\r\n\r\n        return x;\r\n    }\r\n}\r\n",
  "sourcePath": "C:\\Users\\Dell User\\Desktop\\user\\client\\contracts\\helloworld.sol",
  "compiler": {
    "name": "solc",
    "version": "0.5.16+commit.9c3226ce.Emscripten.clang"
  },
  "schemaVersion": "3.4.11",
  "updatedAt": "2023-01-10T08:28:03.913Z",
  "devdoc": {
    "methods": {}
  },
  "userdoc": {
    "methods": {}
  }
}