{
  "contractName": "HelloWorld",
  "abi": [
    {
      "anonymous": false,
      "inputs": [
        {
          "indexed": true,
          "internalType": "string",
          "name": "_panelId",
          "type": "string"
        }
      ],
      "name": "votedEvent",
      "type": "event"
    },
    {
      "constant": true,
      "inputs": [
        {
          "internalType": "uint256",
          "name": "",
          "type": "uint256"
        }
      ],
      "name": "panels",
      "outputs": [
        {
          "internalType": "string",
          "name": "id",
          "type": "string"
        },
        {
          "internalType": "string",
          "name": "name",
          "type": "string"
        },
        {
          "internalType": "uint256",
          "name": "voteCount",
          "type": "uint256"
        }
      ],
      "payable": false,
      "stateMutability": "view",
      "type": "function"
    },
    {
      "constant": true,
      "inputs": [],
      "name": "panelsCount",
      "outputs": [
        {
          "internalType": "uint256",
          "name": "",
          "type": "uint256"
        }
      ],
      "payable": false,
      "stateMutability": "view",
      "type": "function"
    },
    {
      "constant": true,
      "inputs": [
        {
          "internalType": "string",
          "name": "",
          "type": "string"
        }
      ],
      "name": "userVoted",
      "outputs": [
        {
          "internalType": "bool",
          "name": "",
          "type": "bool"
        }
      ],
      "payable": false,
      "stateMutability": "view",
      "type": "function"
    },
    {
      "constant": true,
      "inputs": [
        {
          "internalType": "address",
          "name": "",
          "type": "address"
        }
      ],
      "name": "voters",
      "outputs": [
        {
          "internalType": "bool",
          "name": "",
          "type": "bool"
        }
      ],
      "payable": false,
      "stateMutability": "view",
      "type": "function"
    },
    {
      "constant": true,
      "inputs": [
        {
          "internalType": "string",
          "name": "a",
          "type": "string"
        },
        {
          "internalType": "string",
          "name": "b",
          "type": "string"
        }
      ],
      "name": "compareStrings",
      "outputs": [
        {
          "internalType": "bool",
          "name": "",
          "type": "bool"
        }
      ],
      "payable": false,
      "stateMutability": "pure",
      "type": "function"
    },
    {
      "constant": false,
      "inputs": [
        {
          "internalType": "string",
          "name": "_panelid",
          "type": "string"
        }
      ],
      "name": "addPanel",
      "outputs": [],
      "payable": false,
      "stateMutability": "nonpayable",
      "type": "function"
    },
    {
      "constant": false,
      "inputs": [
        {
          "internalType": "string",
          "name": "_panelId",
          "type": "string"
        },
        {
          "internalType": "string",
          "name": "_userID",
          "type": "string"
        }
      ],
      "name": "vote",
      "outputs": [],
      "payable": false,
      "stateMutability": "nonpayable",
      "type": "function"
    },
    {
      "constant": true,
      "inputs": [],
      "name": "winningProposal",
      "outputs": [
        {
          "internalType": "uint256",
          "name": "winningProposal_",
          "type": "uint256"
        }
      ],
      "payable": false,
      "stateMutability": "view",
      "type": "function"
    },
    {
      "constant": true,
      "inputs": [],
      "name": "winnerName",
      "outputs": [
        {
          "internalType": "string",
          "name": "",
          "type": "string"
        }
      ],
      "payable": false,
      "stateMutability": "view",
      "type": "function"
    },
    {
      "constant": true,
      "inputs": [],
      "name": "totalVotes",
      "outputs": [
        {
          "internalType": "uint256",
          "name": "",
          "type": "uint256"
        }
      ],
      "payable": false,
      "stateMutability": "view",
      "type": "function"
    }
  ],
  "bytecode": "0x608060405234801561001057600080fd5b50611490806100206000396000f3fe608060405234801561001057600080fd5b506004361061009e5760003560e01c8063bed34bba11610066578063bed34bba146102c9578063e2ba53f014610433578063e3ba06d1146104b6578063e8d5940d146104d4578063f40e4f6f146106265761009e565b80630d15fd77146100a357806334c9e962146100c1578063609ff1bd1461017c5780637b57780f1461019a578063a3ec138d1461026d575b600080fd5b6100ab610740565b6040518082815260200191505060405180910390f35b61017a600480360360208110156100d757600080fd5b81019080803590602001906401000000008111156100f457600080fd5b82018360208201111561010657600080fd5b8035906020019184600183028401116401000000008311171561012857600080fd5b91908080601f016020809104026020016040519081016040528093929190818152602001838380828437600081840152601f19601f820116905080830192505050505050509192919290505050610787565b005b610184610814565b6040518082815260200191505060405180910390f35b610253600480360360208110156101b057600080fd5b81019080803590602001906401000000008111156101cd57600080fd5b8201836020820111156101df57600080fd5b8035906020019184600183028401116401000000008311171561020157600080fd5b91908080601f016020809104026020016040519081016040528093929190818152602001838380828437600081840152601f19601f820116905080830192505050505050509192919290505050610878565b604051808215151515815260200191505060405180910390f35b6102af6004803603602081101561028357600080fd5b81019080803573ffffffffffffffffffffffffffffffffffffffff1690602001909291905050506108ae565b604051808215151515815260200191505060405180910390f35b610419600480360360408110156102df57600080fd5b81019080803590602001906401000000008111156102fc57600080fd5b82018360208201111561030e57600080fd5b8035906020019184600183028401116401000000008311171561033057600080fd5b91908080601f016020809104026020016040519081016040528093929190818152602001838380828437600081840152601f19601f8201169050808301925050505050505091929192908035906020019064010000000081111561039357600080fd5b8201836020820111156103a557600080fd5b803590602001918460018302840111640100000000831117156103c757600080fd5b91908080601f016020809104026020016040519081016040528093929190818152602001838380828437600081840152601f19601f8201169050808301925050505050505091929192905050506108ce565b604051808215151515815260200191505060405180910390f35b61043b6109bd565b6040518080602001828103825283818151815260200191508051906020019080838360005b8381101561047b578082015181840152602081019050610460565b50505050905090810190601f1680156104a85780820380516001836020036101000a031916815260200191505b509250505060405180910390f35b6104be610b62565b6040518082815260200191505060405180910390f35b610624600480360360408110156104ea57600080fd5b810190808035906020019064010000000081111561050757600080fd5b82018360208201111561051957600080fd5b8035906020019184600183028401116401000000008311171561053b57600080fd5b91908080601f016020809104026020016040519081016040528093929190818152602001838380828437600081840152601f19601f8201169050808301925050505050505091929192908035906020019064010000000081111561059e57600080fd5b8201836020820111156105b057600080fd5b803590602001918460018302840111640100000000831117156105d257600080fd5b91908080601f016020809104026020016040519081016040528093929190818152602001838380828437600081840152601f19601f820116905080830192505050505050509192919290505050610b68565b005b6106526004803603602081101561063c57600080fd5b8101908080359060200190929190505050610f5f565b604051808060200180602001848152602001838103835286818151815260200191508051906020019080838360005b8381101561069c578082015181840152602081019050610681565b50505050905090810190601f1680156106c95780820380516001836020036101000a031916815260200191505b50838103825285818151815260200191508051906020019080838360005b838110156107025780820151818401526020810190506106e7565b50505050905090810190601f16801561072f5780820380516001836020036101000a031916815260200191505b509550505050505060405180910390f35b6000806000905060008090505b60025481101561077f57600360008281526020019081526020016000206002015482019150808060010191505061074d565b508091505090565b6040518060600160405280828152602001828152602001600081525060036000600254815260200190815260200160002060008201518160000190805190602001906107d49291906113b6565b5060208201518160010190805190602001906107f19291906113b6565b506040820151816002015590505060026000815480929190600101919050555050565b6000806000905060008090505b60025481101561087357816003600083815260200190815260200160002060020154111561086657600360008281526020019081526020016000206002015491508092505b8080600101915050610821565b505090565b6001818051602081018201805184825260208301602085012081835280955050505050506000915054906101000a900460ff1681565b60006020528060005260406000206000915054906101000a900460ff1681565b6000816040516020018082805190602001908083835b6020831061090757805182526020820191506020810190506020830392506108e4565b6001836020036101000a03801982511681845116808217855250505050505090500191505060405160208183030381529060405280519060200120836040516020018082805190602001908083835b602083106109795780518252602082019150602081019050602083039250610956565b6001836020036101000a0380198251168184511680821785525050505050509050019150506040516020818303038152906040528051906020012014905092915050565b6060806040518060400160405280600281526020017f2020000000000000000000000000000000000000000000000000000000000000815250905060008090505b600254811015610b5a57610b4b600360008381526020019081526020016000206001018054600181600116156101000203166002900480601f016020809104026020016040519081016040528092919081815260200182805460018160011615610100020316600290048015610ab55780601f10610a8a57610100808354040283529160200191610ab5565b820191906000526020600020905b815481529060010190602001808311610a9857829003601f168201915b50505050506040518060400160405280600181526020017f3a00000000000000000000000000000000000000000000000000000000000000815250610b0f60036000868152602001908152602001600020600201546110b9565b6040518060400160405280600181526020017f2c00000000000000000000000000000000000000000000000000000000000000815250866111f2565b915080806001019150506109fe565b508091505090565b60025481565b6000803373ffffffffffffffffffffffffffffffffffffffff1673ffffffffffffffffffffffffffffffffffffffff16815260200190815260200160002060009054906101000a900460ff1615610bbe57600080fd5b60008090505b600254811015610cbf57610c86600360008381526020019081526020016000206000018054600181600116156101000203166002900480601f016020809104026020016040519081016040528092919081815260200182805460018160011615610100020316600290048015610c7b5780601f10610c5057610100808354040283529160200191610c7b565b820191906000526020600020905b815481529060010190602001808311610c5e57829003601f168201915b5050505050846108ce565b15610cb25760036000828152602001908152602001600020600201600081548092919060010191905055505b8080600101915050610bc4565b50600073ffffffffffffffffffffffffffffffffffffffff163373ffffffffffffffffffffffffffffffffffffffff161415610d63576040517f08c379a000000000000000000000000000000000000000000000000000000000815260040180806020018281038252600f8152602001807f496e76616c69642061646472657373000000000000000000000000000000000081525060200191505060405180910390fd5b6001816040518082805190602001908083835b60208310610d995780518252602082019150602081019050602083039250610d76565b6001836020036101000a038019825116818451168082178552505050505050905001915050908152602001604051809103902060009054906101000a900460ff1615610e4d576040517f08c379a00000000000000000000000000000000000000000000000000000000081526004018080602001828103825260168152602001807f557365722068617320616c726561647920766f7465640000000000000000000081525060200191505060405180910390fd5b600180826040518082805190602001908083835b60208310610e845780518252602082019150602081019050602083039250610e61565b6001836020036101000a038019825116818451168082178552505050505050905001915050908152602001604051809103902060006101000a81548160ff021916908315150217905550816040518082805190602001908083835b60208310610f025780518252602082019150602081019050602083039250610edf565b6001836020036101000a03801982511681845116808217855250505050505090500191505060405180910390207fc67ac03f9480999b27a37e263a5df747fef748d1edb0b64684da8fb07d21180e60405160405180910390a25050565b6003602052806000526040600020600091509050806000018054600181600116156101000203166002900480601f01602080910402602001604051908101604052809291908181526020018280546001816001161561010002031660029004801561100b5780601f10610fe05761010080835404028352916020019161100b565b820191906000526020600020905b815481529060010190602001808311610fee57829003601f168201915b505050505090806001018054600181600116156101000203166002900480601f0160208091040260200160405190810160405280929190818152602001828054600181600116156101000203166002900480156110a95780601f1061107e576101008083540402835291602001916110a9565b820191906000526020600020905b81548152906001019060200180831161108c57829003601f168201915b5050505050908060020154905083565b60606000821415611101576040518060400160405280600181526020017f300000000000000000000000000000000000000000000000000000000000000081525090506111ed565b600082905060005b6000821461112b578080600101915050600a828161112357fe5b049150611109565b6060816040519080825280601f01601f1916602001820160405280156111605781602001600182028038833980820191505090505b50905060008290505b600086146111e5576001810390506000600a80888161118457fe5b04028703603001905060008160f81b9050808484815181106111a257fe5b60200101907effffffffffffffffffffffffffffffffffffffffffffffffffffffffffffff1916908160001a905350600a88816111db57fe5b0497505050611169565b819450505050505b919050565b606085858585856040516020018086805190602001908083835b6020831061122f578051825260208201915060208101905060208303925061120c565b6001836020036101000a03801982511681845116808217855250505050505090500185805190602001908083835b60208310611280578051825260208201915060208101905060208303925061125d565b6001836020036101000a03801982511681845116808217855250505050505090500184805190602001908083835b602083106112d157805182526020820191506020810190506020830392506112ae565b6001836020036101000a03801982511681845116808217855250505050505090500183805190602001908083835b6020831061132257805182526020820191506020810190506020830392506112ff565b6001836020036101000a03801982511681845116808217855250505050505090500182805190602001908083835b602083106113735780518252602082019150602081019050602083039250611350565b6001836020036101000a03801982511681845116808217855250505050505090500195505050505050604051602081830303815290604052905095945050505050565b828054600181600116156101000203166002900490600052602060002090601f016020900481019282601f106113f757805160ff1916838001178555611425565b82800160010185558215611425579182015b82811115611424578251825591602001919060010190611409565b5b5090506114329190611436565b5090565b61145891905b8082111561145457600081600090555060010161143c565b5090565b9056fea265627a7a72315820b7534b6d03fce25af09490473178dcffa1157e23df0e4a557c3eb887810ed71a64736f6c63430005100032",
  "source": "// SPDX-License-Identifier: GPL-3.0\r\n\r\npragma solidity ^0.5.16;\r\n\r\ncontract HelloWorld {\r\n       function append(string memory b, string memory c, string memory d, string memory e,string memory f) internal pure returns (string memory) {\r\n    return string(abi.encodePacked( b, c, d, e,f));\r\n    }\r\n    function uint2str(uint _i) internal pure returns (string memory _uintAsString) {\r\n        if (_i == 0) {\r\n            return \"0\";\r\n        }\r\n        uint j = _i;\r\n        uint len;\r\n        while (j != 0) {\r\n            len++;\r\n            j /= 10;\r\n        }\r\n        bytes memory bstr = new bytes(len);\r\n        uint k = len;\r\n        while (_i != 0) {\r\n            k = k-1;\r\n            uint8 temp = (48 + uint8(_i - _i / 10 * 10));\r\n            bytes1 b1 = bytes1(temp);\r\n            bstr[k] = b1;\r\n            _i /= 10;\r\n        }\r\n        return string(bstr);\r\n    }\r\n\r\n    function compareStrings(string memory a, string memory b)\r\n        public\r\n        pure\r\n        returns (bool){\r\n        return (keccak256(abi.encodePacked((a))) ==\r\n        keccak256(abi.encodePacked((b))));\r\n    }\r\n\r\n    struct Panel {\r\n        string id;\r\n        string name;\r\n        uint256 voteCount;\r\n    }\r\n    mapping(address => bool) public voters;\r\n    mapping (string => bool) public userVoted;\r\n    uint256 public panelsCount;\r\n\r\n    mapping(uint256 => Panel) public panels;\r\n\r\n    function addPanel(string memory _panelid) public {\r\n        \r\n        panels[panelsCount] = Panel(_panelid, _panelid, 0);\r\n        panelsCount++;\r\n    }\r\n\r\n    event votedEvent(string indexed _panelId);\r\n\r\n    function vote(string memory _panelId,string memory _userID) public {\r\n        // require that they haven't voted before\r\n        require(!voters[msg.sender]);\r\n        //require(!userID(_userID));\r\n\r\n        // require a valid candidate\r\n        // require(_candidateId > 0 && _candidateId <= candidatesCount);\r\n\r\n        // record that voter has voted\r\n        for (uint256 i = 0; i < panelsCount; i++) {\r\n            if (compareStrings(panels[i].id, _panelId)) {\r\n                panels[i].voteCount++;\r\n            }\r\n        }\r\n        //voters[msg.sender] = true;\r\n        \r\n        require(msg.sender != address(0), \"Invalid address\");\r\n        require(!userVoted[_userID], \"User has already voted\");\r\n\r\n        userVoted[_userID] = true;\r\n        // update candidate vote Count\r\n\r\n        // trigger voted event\r\n        emit votedEvent(_panelId);\r\n    }\r\n    \r\n    function winningProposal() public view returns (uint256 winningProposal_) {\r\n        uint256 winningVoteCount = 0;\r\n        for (uint256 p = 0; p < panelsCount; p++) {\r\n            if (panels[p].voteCount > winningVoteCount) {\r\n                winningVoteCount = panels[p].voteCount;\r\n                winningProposal_ = p;\r\n            }\r\n        }\r\n    }\r\n\r\n    function winnerName() public view returns (string memory) {\r\n        string memory x = \"  \";\r\n        for (uint256 p=0;p<panelsCount;p++){\r\n           x =  append(panels[p].name,\":\",uint2str(panels[p].voteCount),\",\",x);\r\n        }\r\n\r\n        return x;\r\n    }\r\n\r\n    function totalVotes() public view returns (uint256){\r\n         uint256 x = 0;\r\n         for (uint256 p=0;p<panelsCount;p++){\r\n           x = x +  panels[p].voteCount;\r\n        }\r\n\r\n        return x;\r\n    }\r\n\r\n}\r\n",
  "sourcePath": "C:\\Users\\Dell User\\Desktop\\user\\client\\contracts\\helloworld.sol",
  "compiler": {
    "name": "solc",
    "version": "0.5.16+commit.9c3226ce.Emscripten.clang"
  },
  "schemaVersion": "3.4.11",
  "updatedAt": "2023-02-04T11:52:32.294Z",
  "networkType": "ethereum",
  "devdoc": {
    "methods": {}
  },
  "userdoc": {
    "methods": {}
  }
}